{
  "contractName": "Lottery",
  "abi": [
    {
      "inputs": [],
      "stateMutability": "nonpayable",
      "type": "constructor"
    },
    {
      "anonymous": false,
      "inputs": [
        {
          "indexed": false,
          "internalType": "uint256",
          "name": "index",
          "type": "uint256"
        },
        {
          "indexed": false,
          "internalType": "address",
          "name": "bettor",
          "type": "address"
        },
        {
          "indexed": false,
          "internalType": "uint256",
          "name": "amount",
          "type": "uint256"
        },
        {
          "indexed": false,
          "internalType": "bytes",
          "name": "challenges",
          "type": "bytes"
        },
        {
          "indexed": false,
          "internalType": "uint256",
          "name": "answerBlockNumber",
          "type": "uint256"
        }
      ],
      "name": "BET",
      "type": "event"
    },
    {
      "inputs": [],
      "name": "owner",
      "outputs": [
        {
          "internalType": "address",
          "name": "",
          "type": "address"
        }
      ],
      "stateMutability": "view",
      "type": "function"
    },
    {
      "inputs": [],
      "name": "getPot",
      "outputs": [
        {
          "internalType": "uint256",
          "name": "",
          "type": "uint256"
        }
      ],
      "stateMutability": "view",
      "type": "function"
    },
    {
      "inputs": [
        {
          "internalType": "bytes",
          "name": "challenges",
          "type": "bytes"
        }
      ],
      "name": "bet",
      "outputs": [
        {
          "internalType": "bool",
          "name": "result",
          "type": "bool"
        }
      ],
      "stateMutability": "payable",
      "type": "function"
    },
    {
      "inputs": [
        {
          "internalType": "uint256",
          "name": "index",
          "type": "uint256"
        }
      ],
      "name": "getBetInfo",
      "outputs": [
        {
          "internalType": "uint256",
          "name": "answerBlockNumber",
          "type": "uint256"
        },
        {
          "internalType": "address",
          "name": "bettor",
          "type": "address"
        },
        {
          "internalType": "bytes",
          "name": "challenges",
          "type": "bytes"
        }
      ],
      "stateMutability": "view",
      "type": "function"
    },
    {
      "inputs": [
        {
          "internalType": "bytes",
          "name": "challenges",
          "type": "bytes"
        }
      ],
      "name": "pushBet",
      "outputs": [
        {
          "internalType": "bool",
          "name": "",
          "type": "bool"
        }
      ],
      "stateMutability": "nonpayable",
      "type": "function"
    },
    {
      "inputs": [
        {
          "internalType": "uint256",
          "name": "index",
          "type": "uint256"
        }
      ],
      "name": "popBet",
      "outputs": [
        {
          "internalType": "bool",
          "name": "",
          "type": "bool"
        }
      ],
      "stateMutability": "nonpayable",
      "type": "function"
    }
  ],
  "bytecode": "0x608060405234801561001057600080fd5b5033600360006101000a81548173ffffffffffffffffffffffffffffffffffffffff021916908373ffffffffffffffffffffffffffffffffffffffff160217905550610cd3806100616000396000f3fe6080604052600436106100555760003560e01c8063403c9fa81461005a578063599eac8a1461008557806379141f80146100b55780638da5cb5b146100f4578063982141351461011f578063d04c9a8c1461015c575b600080fd5b34801561006657600080fd5b5061006f610199565b60405161007c919061068a565b60405180910390f35b61009f600480360381019061009a91906107ff565b6101a3565b6040516100ac9190610863565b60405180910390f35b3480156100c157600080fd5b506100dc60048036038101906100d791906108aa565b610293565b6040516100eb939291906109a0565b60405180910390f35b34801561010057600080fd5b506101096103c9565b60405161011691906109de565b60405180910390f35b34801561012b57600080fd5b50610146600480360381019061014191906107ff565b6103ef565b6040516101539190610863565b60405180910390f35b34801561016857600080fd5b50610183600480360381019061017e91906108aa565b6104f7565b6040516101909190610863565b60405180910390f35b6000600454905090565b60006102ee34146101e9576040517f08c379a00000000000000000000000000000000000000000000000000000000081526004016101e090610a56565b60405180910390fd5b6101f2826103ef565b610231576040517f08c379a000000000000000000000000000000000000000000000000000000000815260040161022890610ac2565b60405180910390fd5b7f2fd14896e96d250bb5049b83d0198fc7663c624bc855bd734f54a2d56cab236b60016000546102619190610b11565b3334856003436102719190610b45565b604051610282959493929190610b9b565b60405180910390a160019050919050565b6000806060600060026000868152602001908152602001600020604051806060016040529081600082015481526020016001820160009054906101000a900473ffffffffffffffffffffffffffffffffffffffff1673ffffffffffffffffffffffffffffffffffffffff1673ffffffffffffffffffffffffffffffffffffffff16815260200160028201805461032890610c24565b80601f016020809104026020016040519081016040528092919081815260200182805461035490610c24565b80156103a15780601f10610376576101008083540402835291602001916103a1565b820191906000526020600020905b81548152906001019060200180831161038457829003601f168201915b5050505050815250509050806000015193508060200151925080604001519150509193909250565b600360009054906101000a900473ffffffffffffffffffffffffffffffffffffffff1681565b60006103f9610557565b33816020019073ffffffffffffffffffffffffffffffffffffffff16908173ffffffffffffffffffffffffffffffffffffffff168152505060034361043e9190610b45565b8160000181815250508281604001819052508060026000805481526020019081526020016000206000820151816000015560208201518160010160006101000a81548173ffffffffffffffffffffffffffffffffffffffff021916908373ffffffffffffffffffffffffffffffffffffffff16021790555060408201518160020190805190602001906104d292919061058e565b509050506000808154809291906104e890610c55565b91905055506001915050919050565b6000600260008381526020019081526020016000206000808201600090556001820160006101000a81549073ffffffffffffffffffffffffffffffffffffffff021916905560028201600061054c9190610614565b505060019050919050565b604051806060016040528060008152602001600073ffffffffffffffffffffffffffffffffffffffff168152602001606081525090565b82805461059a90610c24565b90600052602060002090601f0160209004810192826105bc5760008555610603565b82601f106105d557805160ff1916838001178555610603565b82800160010185558215610603579182015b828111156106025782518255916020019190600101906105e7565b5b5090506106109190610654565b5090565b50805461062090610c24565b6000825580601f106106325750610651565b601f0160209004906000526020600020908101906106509190610654565b5b50565b5b8082111561066d576000816000905550600101610655565b5090565b6000819050919050565b61068481610671565b82525050565b600060208201905061069f600083018461067b565b92915050565b6000604051905090565b600080fd5b600080fd5b600080fd5b600080fd5b6000601f19601f8301169050919050565b7f4e487b7100000000000000000000000000000000000000000000000000000000600052604160045260246000fd5b61070c826106c3565b810181811067ffffffffffffffff8211171561072b5761072a6106d4565b5b80604052505050565b600061073e6106a5565b905061074a8282610703565b919050565b600067ffffffffffffffff82111561076a576107696106d4565b5b610773826106c3565b9050602081019050919050565b82818337600083830152505050565b60006107a261079d8461074f565b610734565b9050828152602081018484840111156107be576107bd6106be565b5b6107c9848285610780565b509392505050565b600082601f8301126107e6576107e56106b9565b5b81356107f684826020860161078f565b91505092915050565b600060208284031215610815576108146106af565b5b600082013567ffffffffffffffff811115610833576108326106b4565b5b61083f848285016107d1565b91505092915050565b60008115159050919050565b61085d81610848565b82525050565b60006020820190506108786000830184610854565b92915050565b61088781610671565b811461089257600080fd5b50565b6000813590506108a48161087e565b92915050565b6000602082840312156108c0576108bf6106af565b5b60006108ce84828501610895565b91505092915050565b600073ffffffffffffffffffffffffffffffffffffffff82169050919050565b6000610902826108d7565b9050919050565b610912816108f7565b82525050565b600081519050919050565b600082825260208201905092915050565b60005b83811015610952578082015181840152602081019050610937565b83811115610961576000848401525b50505050565b600061097282610918565b61097c8185610923565b935061098c818560208601610934565b610995816106c3565b840191505092915050565b60006060820190506109b5600083018661067b565b6109c26020830185610909565b81810360408301526109d48184610967565b9050949350505050565b60006020820190506109f36000830184610909565b92915050565b600082825260208201905092915050565b7f4e6f7420656e6f75676820455448000000000000000000000000000000000000600082015250565b6000610a40600e836109f9565b9150610a4b82610a0a565b602082019050919050565b60006020820190508181036000830152610a6f81610a33565b9050919050565b7f4661696c20746f206164642061206e6577204265740000000000000000000000600082015250565b6000610aac6015836109f9565b9150610ab782610a76565b602082019050919050565b60006020820190508181036000830152610adb81610a9f565b9050919050565b7f4e487b7100000000000000000000000000000000000000000000000000000000600052601160045260246000fd5b6000610b1c82610671565b9150610b2783610671565b925082821015610b3a57610b39610ae2565b5b828203905092915050565b6000610b5082610671565b9150610b5b83610671565b9250827fffffffffffffffffffffffffffffffffffffffffffffffffffffffffffffffff03821115610b9057610b8f610ae2565b5b828201905092915050565b600060a082019050610bb0600083018861067b565b610bbd6020830187610909565b610bca604083018661067b565b8181036060830152610bdc8185610967565b9050610beb608083018461067b565b9695505050505050565b7f4e487b7100000000000000000000000000000000000000000000000000000000600052602260045260246000fd5b60006002820490506001821680610c3c57607f821691505b602082108103610c4f57610c4e610bf5565b5b50919050565b6000610c6082610671565b91507fffffffffffffffffffffffffffffffffffffffffffffffffffffffffffffffff8203610c9257610c91610ae2565b5b60018201905091905056fea2646970667358221220a74c2440ff8536911b58ac38d1d131a7244c77f9294c4dc683b3404eea56427e64736f6c634300080e0033",
  "immutableReferences": {},
  "source": "// SPDX-License-Identifier: MIT\npragma solidity >=0.4.22 <0.9.0;\n\ncontract Lottery {\n  struct BetInfo {\n    uint256 answerBlockNumber;\n    address payable bettor;\n    bytes challenges;\n  }\n\n  uint256 private _tail;\n  uint256 private _haed;\n  mapping (uint256 => BetInfo) private _bets;\n\n  address public owner;\n\n  uint256 constant internal BLOCK_LIMIT = 256;\n  uint256 constant internal BET_BLOCK_INTERVAL = 3;\n  uint256 constant internal BET_AMOUNT = 5 * 10 * 15;\n\n  uint256 private _pot;\n\n  event BET(uint256 index, address bettor, uint256 amount, bytes challenges, uint256 answerBlockNumber);\n  constructor() {\n    owner = msg.sender;\n  }\n\n  function getPot() public view returns (uint256) {\n    return _pot;\n  }\n\n  //Bet\n  /**\n   * @dev  .  0.005 .   1byte .\n   * @param challenges   .\n   * @return result   \n  */\n  function bet(bytes memory challenges) public payable returns (bool result) {\n    require(msg.value == BET_AMOUNT, 'Not enough ETH');\n\n    require(pushBet(challenges), 'Fail to add a new Bet');\n\n    emit BET(_tail - 1, msg.sender, msg.value, challenges, block.number + BET_BLOCK_INTERVAL);\n\n    return true;\n  }\n\n  function getBetInfo(uint256 index) public view returns (uint256 answerBlockNumber, address bettor, bytes memory challenges) {\n    BetInfo memory b = _bets[index];\n    answerBlockNumber = b.answerBlockNumber;\n    bettor = b.bettor;\n    challenges = b.challenges;\n  }\n\n  function pushBet(bytes memory challenges) public returns (bool) {\n    BetInfo memory b;\n    b.bettor = payable(msg.sender);\n    b.answerBlockNumber = block.number + BET_BLOCK_INTERVAL;\n    b.challenges = challenges;\n\n    _bets[_tail] = b;\n    _tail++;\n\n    return true;\n  }\n\n  function popBet(uint256 index) public returns (bool) {\n    delete _bets[index];\n    return true;\n  }\n}",
  "sourcePath": "/Users/kmh/Desktop/coding/blockchain/lottry_practice/contracts/Lottery.sol",
  "compiler": {
    "name": "solc",
    "version": "0.8.14+commit.80d49f37.Emscripten.clang"
  },
  "schemaVersion": "3.4.7",
  "updatedAt": "2022-06-21T16:39:19.703Z",
  "devdoc": {
    "kind": "dev",
    "methods": {
      "bet(bytes)": {
        "details": " .  0.005 .   1byte .",
        "params": {
          "challenges": "  ."
        },
        "returns": {
          "result": "  "
        }
      }
    },
    "version": 1
  },
  "userdoc": {
    "kind": "user",
    "methods": {},
    "version": 1
  }
}